:020000000A28CC
:10000800FE00030EC0000A08C1008C280B288301DB
:100018000D289320852010280519132814285B28FB
:1000280005141913C730C2001928C20B18281C2838
:100038001D2819170430C300E430C200C20B22285F
:10004800C30B222800001913C730C2002B28C20B8B
:100058002A282E282F281917C730C2003328C20B88
:1000680032283628372819130430C300E430C20078
:10007800C20B3C28C30B3C28000019170330C300EF
:100088009730C200C20B4628C30B46284B281913C9
:100098000B30C4002630C3005D30C200C20B5228AA
:1000A800C30B5228C40B5228592805105B2819176E
:1000B8000430C300E430C200C20B6028C30B6028C0
:1000C800000019130B30C4002630C3005D30C20095
:1000D800C20B6C28C30B6C28C40B6C28732810281F
:1000E80010280A283430920087309305FC30930595
:1000F80013151130980003309700991719138C10B5
:10010800080089010C3086008701880176200800E4
:1001180041088A00400E8300FE0E7E0E090008008A
:02400E00A63FCB
:00000001FF
